{
    "nonce": "0x47",
    "gasPrice": "0x04e3b29200",
    "gasLimit": "0x5208",
    "to": "0xef3AC99B576909852D8470b219Ef1F0118b05aFc",
    "value": "0x5af3107a4000",
    "data": "",
    "chainId": 1
}

{
    "nonce": "0x4a",
    "gasPrice": "0x04e3b29200",
    "gasLimit": "0x5208",
    "to": "0xef3AC99B576909852D8470b219Ef1F0118b05aFc",
    "value": "0x5af3107a4000",
    "data": "",
    "chainId": 1
}


{
    "nonce": "0x4b",
    "gasPrice": "0x04e3b29200",
    "gasLimit": "0x5208",
    "to": "0xef3AC99B576909852D8470b219Ef1F0118b05aFc",
    "value": "0x5af3107a4000",
    "data": "",
    "chainId": 1
}

0xf86a4b8504e3b2920082520894ef3ac99b576909852d8470b219ef1f0118b05afc865af3107a40008025a02f17730e885257de922f6ae9265e58a33b7ec0397ed2dd73a73fda11803f0bf4a02333387ca7ee9d7a4aed8dc8fa7631c0ed942297df8bcaf75bd21f435309c3b4

0xf86a4b8504e3b2920082520894ef3ac99b576909852d8470b219ef1f0118b05afc865af3107a40008025a02f17730e885257de922f6ae9265e58a33b7ec0397ed2dd73a73fda11803f0bf4a02333387ca7ee9d7a4aed8dc8fa7631c0ed942297df8bcaf75bd21f435309c3b4


0xf86a4d8504e3b2920082520894ef3ac99b576909852d8470b219ef1f0118b05afc865af3107a40008025a0ff6126404c398ac6df78015fcaa7e1d950cf8b2b44ace283691ece85831fbb16a0419023c6a44a7c7c95be49f4c589f3f401ed418ad13adc17d6d7eca77ece9f2f

0xf86a4e8504e3b2920082520894ef3ac99b576909852d8470b219ef1f0118b05afc865af3107a40008026a0e55eab5cc1b27c7bc002287470b1e07afd6652320221327714f7aa79532845cea031bfa2361cedc2d0771aa25b673333f98229747ee7510b0fff35a310cdbd8b69



